:020000040800F2
:100000008846002045010008FF150008E513000898
:10001000FD15000875020008C11B00080000000063
:1000200000000000000000000000000003160008AF
:1000300077020008000000000116000805160008FD
:100040005F0100085F0100085F0100085F01000810
:100050005F0100085F0100085F0100085F01000800
:100060005F0100085F0100085F0100085F010008F0
:100070005F0100085F0100085F0100085F010008E0
:100080005F0100085F0100085F0100085F010008D0
:100090005F0100085F0100085F0100085F010008C0
:1000A0005F0100085F0100085F0100085F010008B0
:1000B0005F0100085F0100085F0100085F010008A0
:1000C0005F0100085F0100085F0100085F01000890
:1000D0005F0100086D1B0008791B00085F01000824
:1000E0005F0100085F0100085F0100085F01000870
:1000F0005F0100085F0100085F0100085F01000860
:100100005F0100085F0100085F0100085F0100084F
:100110001D1900085F0100085F0100085F01000869
:100120005F0100085F0100085F0100085F0100082F
:10013000DFF80CD000F08CF800480047F1200008F0
:10014000884600200648804706480047FEE7FEE74D
:10015000FEE7FEE7FEE7FEE7FEE7FEE7FEE7FEE777
:1001600059160008310100082DE9F05F054600200E
:1001700092469B4688460646814640241BE0284618
:1001800041464746224600F020F853465A46C01AD8
:10019000914110D311461846224600F04AF82D1A14
:1001A00067EB01084F4622460120002100F041F88C
:1001B00017EB00094E41201EA4F10104DFDC484684
:1001C00031462A464346BDE8F09F202A04DB203A08
:1001D00021FA02F00021704721FA02F3D040C2F167
:1001E00020029140084319467047D2B201E000F85E
:1001F000012B491EFBD270470022F6E710B51346CB
:100200000A4604461946FFF7F0FF204610BD30B5F8
:1002100005462A460B4612F8010B13F8014B08B1AC
:10022000A042F8D01CB1002802D06D1CF1E728468E
:1002300030BD202A04DB203A00FA02F1002070478A
:100240009140C2F1200320FA03F319439040704714
:10025000064C074D06E0E06840F0010394E8070013
:1002600098471034AC42F6D3FFF766FFA424000889
:10027000C4240008FEE77047704700002DE9F05FD6
:1002800090F821100024022903D004218163012465
:1002900085E001680A6822F00E020A6001680A68B7
:1002A00022F001020A603F4E3E4FB215DFF8F4C063
:1002B000DFF8F090DFF8ECA0DFF8E8B0DFF8E4E07A
:1002C0000168783F13011502ACF1640CA9F15009E3
:1002D000AAF13C0AABF1280BAEF1140E4FF48018D2
:1002E000B14227D9B9420ED0614512D049451DD03F
:1002F000514518D0594518D0714501D1424615E0F5
:10030000294EB14201D1012210E0274E1436B142EC
:1003100001D110220AE0244E2836B14206D0224AEA
:100320003C32914201D11A4600E02A461E49091F7B
:100330000A602BE0B94213D0614517D0494522D05D
:1003400051451DD059451DD0714501D142461AE095
:10035000B14202D14FF0807215E0134EB14201D18B
:10036000012210E0104E1436B14201D110220AE0F1
:100370000D4E2836B14206D00B4A3C32914201D193
:100380001A4600E02A46074980394A60012180F870
:100390002110002180F82010416B01B188472046D0
:1003A000BDE8F09F800002400804024070B504469A
:1003B00000F016F90546601C02D004480078044499
:1003C00000F00EF9401BA042FAD370BD740000206B
:1003D0002DE9F84FDFF8C891002409F1040A0AF169
:1003E000040B23460F270BF1040ED1E00125A54095
:1003F00006EA0502AA4276D1DFF8A8C14E68A6EB4C
:100400000C0866452BD00DDC032E34D005DC36B34A
:10041000012E19D0022E2FD11BE0112E16D0122E34
:100420002AD119E0B8F5881F19D006DCB8F5803F4D
:1004300015D0B8F5801F1FD111E0B8F5001F0ED000
:10044000B8F5041F18D10AE0CB6815E0CB681B1D76
:1004500012E0CB6808330FE0CB680C330CE08B68FC
:100460002BB1012B4FF0080303D0456104E00423B6
:1004700002E0056100E00023FF2A01D8064601E002
:1004800000F104064FEA840501D9A5F12005D6F84C
:10049000008007FA05FC28EA0C0803FA05F548EA8B
:1004A0000508C6F800804D68ED0070D53E4DAE6978
:1004B00046F00106AE61AD6924F0030605F00105C2
:1004C00000953A4D06EB050CDCF80850A607360FF0
:1004D00007FA06F825EA0805DFF8D480404503D17D
:1004E0004FF0000825E052E0DFF8C880404502D117
:1004F0004FF001081DE0DFF8C080404502D14FF009
:10050000020816E0DFF8B480404502D14FF003083E
:100510000FE0DFF8AC80404502D14FF0040808E05E
:10052000DFF8A080404502D14FF0050801E04FF010
:10053000060808FA06F848EA0508CCF808804D686D
:10054000D9F80060ED034D4601D5164300E096430F
:100550002E604D68DAF80060AD03554601D51643AC
:1005600000E096432E604D68DBF80060ED025D46CA
:1005700001D5164300E096432E604D68DEF800601A
:10058000AD02754601D5164300E096432E60641C0B
:100590000A681646E2407FF429AFBDE8F88F0000F4
:1005A0000004014000001110001002400000014052
:1005B00000080140000C01400010014000140140FF
:1005C00000180140001C0140C2680A4201D041618C
:1005D0007047016170470AB1016170470904FBE788
:1005E000014880687047000074000020024881685C
:1005F000027811448160704774000020074810B5EC
:10060000016841F010010160032000F075F800203E
:1006100000F006F800F024F8002010BD0020024091
:1006200070B50D4D04464FF47A712878B1FBF0F0A7
:100630000A490968B1FBF0F000F0ECFA48B9102C57
:1006400007D200222146501E00F036F800206C60D0
:1006500070BD012070BD00007400002080000020EB
:100660000C4808B5816941F001018161816901F09F
:1006700001010091C16941F08051C161C06900F080
:10068000805000900448416821F0E06141F0007121
:10069000416008BD0010024000000140002809DB55
:1006A00000F01F02012191404009800000F1E0208C
:1006B000C0F8001170470000F0B40E4B1B680C46E8
:1006C000C3F30223C3F10705042D00D90425191D26
:1006D000072901D2002300E0DB1E012606FA05F1FE
:1006E000491E214099409E40761E16403143F0BC81
:1006F00001F078BA0CED00E0064900F00702086846
:100700004FF6FF03184040EA0220034A10430860F6
:10071000704700000CED00E00000FA052DE9F047FD
:100720000F46050061D0434E306800F00700B84224
:1007300009D2306820F0070038433060306800F09C
:100740000700B84251D128683B4C810712D54007B9
:1007500003D5606840F4E06060602878000703D546
:10076000606840F4605060606068A96820F0F00044
:10077000084360602878C00728D06868012810D036
:100780002168022810D0890700292EDA616821F03B
:10079000030101436160FFF723FF804641F288397E
:1007A0000DE021688903EFE78901EDE7FFF718FF06
:1007B000A0EB0801494502D90320BDE8F087606835
:1007C000696800F00C00B0EB810FEFD1306800F0E9
:1007D0000700B8420BD9306820F00700384330607A
:1007E000306800F00700B84201D00120E5E7287822
:1007F000400705D56068E96820F4E0600843606060
:100800002878000706D56068296920F4605040EA1E
:10081000C100606000F038F86168084AC1F3031154
:10082000515CC8400649086006480068FFF7F8FEBA
:100830000020C2E700200240001002408C24000883
:1008400080000020780000200448054900684968BD
:10085000044AC1F30221515CC84070478000002067
:10086000001002409C2400080448054900684968BB
:10087000044AC1F3C221515CC84070478000002087
:10088000001002409C24000812A185B00FC98DE819
:100890000F0014A0144A006804905168134801F036
:1008A0000C03042B10D0082B0ED1C1F38343C903D2
:1008B0001DF803000AD5516804AAC1F34041515CF8
:1008C0000A4A5043B0FBF1F005B07047084948436D
:1008D000FAE7000002030405060708090A0B0C0DDD
:1008E0000E0F1010010200000010024000127A00EA
:1008F00000093D002DE9F84F040070D02078C04D6C
:10090000C00749D06868C0F38100012807D0686833
:10091000C0F38100022809D16868C00306D52868A1
:10092000800339D560680028E7D035E06068B0F50D
:10093000803F0BD010B1B0F5A02F11D0286820F463
:1009400080302860286820F4802002E0286840F485
:1009500080302860606890B1FFF742FE06460AE0EA
:10096000286840F480202860F0E700BFFFF738FED9
:10097000801B642873D828688003F7D50CE0FFF744
:100980002FFE064605E000BFFFF72AFE801B642805
:10099000F0D828688003F7D420789A4E80074FF06B
:1009A00001094FF0000839D5686810F00C0F07D026
:1009B0006868C0F38100022809D16868C00306D4C2
:1009C0002868800714D52069012808D110E0206923
:1009D000B0B1C6F80090FFF703FE074605E00AE154
:1009E000FFF7FEFDC01B0228C4D828688007F7D592
:1009F0002868616920F0F80040EAC10028600DE035
:100A0000C6F80080FFF7ECFD074604E0FFF7E8FDBD
:100A1000C01B022823D828688007F7D42078000755
:100A20002CD57948A169D9B1C0F80090FFF7D8FD5D
:100A3000074604E0FFF7D4FDC01B02280FD8686A00
:100A40008007F7D571484FF4FA510068B0FBF1F018
:100A5000009000BF0098411E0091FAD20EE080E0A5
:100A6000C0F80080FFF7BCFD074604E0FFF7B8FDC3
:100A7000C01B022875D8686A8007F7D42078400721
:100A800060D5E8690027C00008D4E86940F08050CC
:100A9000E861E869012700F0805000905C48016837
:100AA000C90513D40168834641F480710160FFF7E2
:100AB00097FD824606E000BFFFF792FDA0EB0A001B
:100AC00064284ED8DBF80000C005F5D5E0680128A1
:100AD0000AD008B1052813D0286A20F00100286246
:100AE000286A20F0040002E0286A40F00100286231
:100AF000E06841F2883B98B1FFF772FD82460BE057
:100B0000286A40F004002862EEE700BFFFF768FDA6
:100B1000A0EB0A0159455AD8286A8007F6D50CE09F
:100B2000FFF75EFD824605E0FFF75AFDA0EB0A01E4
:100B300059454CD8286A8007F6D41FB1E86920F0DF
:100B40008050E861E06988B36968C1F381010229D6
:100B500044D00228C6F8608004D0FFF741FD044667
:100B600038E034E0FFF73CFD074604E0FFF738FDCE
:100B7000C01B02282BD828688001F7D4206AB0F562
:100B8000803F05D16868A16820F4003008436860A0
:100B9000D4E908010843696821F4741108436860C6
:100BA000C6F86090FFF71CFD044606E025E000BF94
:100BB000FFF716FD001B022809D828688001F7D529
:100BC0001BE000BFFFF70CFD001B022802D9032029
:100BD000BDE8F88F28688001F4D40EE00128F7D032
:100BE0006868226A00F48031914204D1616A00F49D
:100BF0007010884201D00120EAE70020E8E70000F9
:100C00000010024000004242800442428000002066
:100C10000070004010B5401EB0F1807F01D301206C
:100C200010BD4FF0E02460610F21601700F0DAFF83
:100C30000020A06107202061002010BD10B590F8B1
:100C40003C20012A22D0012280F83C20CA688C680E
:100C500022F4407222434C6822F4806222430C68E2
:100C600022F4006222430C6922F4805222434C6930
:100C700022F400522243C969002322F480420A432D
:100C800001684A6480F83C30002010BD022010BD8D
:100C900070B590F83C20012A19D0012400F83C4F8F
:100CA0000222427050F83C3C5A689D6822F070065F
:100CB0000A684968324325F0800529435A6050F894
:100CC0003C2C9160447000210170084670BD0220E8
:100CD00070BD10B5040003D094F83D0010B107E0DA
:100CE000012010BD002084F83C00204600F00CF8E4
:100CF000022084F83D00211D206800F0D1FC012075
:100D000084F83D00002010BD08B5006806498842FF
:100D100008D10648816941F400618161806900F46D
:100D20000060009008BD0000002C0140001002404F
:100D300070B5044690F83C00012817D0012584F8CE
:100D40003C50022084F83D002068826822F077023F
:100D500022F47F4282600868502830D00DDC2028C1
:100D60004DD005DC98B310283BD148E0022070BD7F
:100D7000302844D0402834D139E0602828D0702869
:100D800006D0B0F5805F2CD0B0F5005F29D10AE025
:100D9000CB68D1E90121206800F0C8FC2068816897
:100DA00041F0770109E0CB68D1E90121206800F02A
:100DB000BDFC2068816841F48041816011E0CA680F
:100DC0004968206800F086FD5021206807E016E0A1
:100DD000CA684968206800F08EFD6021206800F034
:100DE000AFFC84F83D50002084F83C0070BDCA6818
:100DF0004968206800F06EFD40212068EFE7226816
:100E000001461046EBE7000000B585B000210091D7
:100E100001910291039100680B49884212D10B485D
:100E2000816941F0040181618069694600F0040034
:100E300004904FF4807000900220019003900448C9
:100E4000FFF7C6FA05B000BD002C014000100240BB
:100E50000008014070B5044690F83C000D4601289A
:100E60000DD0012684F83C60022084F83D0042B198
:100E7000042A18D0082A2AD00C2A4DD139E00220A1
:100E800070BD206800F064FC2068816941F00801B1
:100E900081612068816921F0040181612068816994
:100EA0002A69114311E0206800F082FC2068816902
:100EB00041F4006181612068816921F48061816170
:100EC000206881692A6941EA0221816124E0206861
:100ED00000F0A4FC2068C16941F00801C1612068EC
:100EE000C16921F00401C1612068C1692A69114307
:100EF00011E0206800F0C6FC2068C16941F400617F
:100F0000C1612068C16921F48061C1612068C16943
:100F10002A6941EA0221C16184F83D60002084F819
:100F20003C0070BD10B5040003D094F83D0010B132
:100F300007E0012010BD002084F83C00204600F0AE
:100F40000CF8022084F83D00211D206800F0A8FB69
:100F5000012084F83D00002010BD704710B5C16B22
:100F600004460FA000F02EFE0020E06310488442EB
:100F700003D101220F4900F077F90D484030844237
:100F800003D101220C4900F06FF90948403884422E
:100F900005D1BDE810400122084900F065B910BD37
:100FA00055415254204572726F723A25640D0A0001
:100FB000080600200E0000201A0000200200002079
:100FC00070B5026804461068D168536910F00F0FBD
:100FD00051D003F0010501F4907635435DD0C2078E
:100FE00005D0CA0503D5E26B42F00102E263420775
:100FF00005D5DA0703D0E26B42F00202E263820712
:1010000005D5DA0703D0E26B42F00402E26302077F
:1010100005D5DA0703D0E26B42F00802E263E26B27
:10102000002A34D0800604D5880602D5204600F078
:1010300091FC20684069E16BC0F3801001F0080169
:101040000143204624D000F077FC2068416949061E
:101050001AD5416921F040014161606BA0B11B4983
:101060004163606BFFF70AF9002810D0606B416B99
:10107000BDE87040084783060FD58B060DD5204686
:10108000BDE8704000F066BC2046FFF767FF70BD0A
:10109000FFF764FF0020E06370BD030606D50B0672
:1010A00004D52046BDE8704000F0FCBC4006F3D5F6
:1010B0004806F1D5D168204621F04001D1602021B9
:1010C00084F8391000F08DF970BD0000291900086E
:1010D00070B5040004D094F83900002510B106E082
:1010E000012070BD84F83850204600F023F82420F9
:1010F00084F839002068C16821F40051C16020469D
:1011000000F074FC2068016921F4904101612068BD
:10111000416921F02A0141612068C16841F4005110
:10112000C160E563202084F8390084F83A0000208B
:1011300070BD0000F0B585B00024009401940294C5
:1011400003944449424D03680E1502200322AB422A
:1011500026D1CB6943F40023CB61CB6903F4002390
:1011600004938B6943F010038B6189693A4D01F058
:101170001001CDE90321CDE9006069462846FFF75B
:1011800027F9E814CDE90004694628460294FFF7E0
:101190001FF9002211463420FFF78EFA342028E090
:1011A0002E4F2F4DBB4228D18B6943F480438B6176
:1011B0008B6903F4804304938B6943F004038B61D0
:1011C0008969039201F0040104916915CDE90010C9
:1011D00069462846FFF7FCF8CDE9006469462846D1
:1011E0000294FFF7F5F8002211462520FFF764FA74
:1011F0002520FFF753FA05B0F0BD1A4EB342FAD1DD
:10120000CB6943F40033CB61CB6903F4003304931F
:101210008B6943F004038B618969039201F0040137
:1012200004910421CDE9001069462846FFF7D0F863
:101230000820CDE90004694628460294FFF7C8F863
:10124000002211462620FFF737FA2620D1E70000BA
:10125000004C0040001002400010014000380140E6
:10126000000801400044004090F83A30202B22D181
:10127000F9B1F2B190F83830012B1CD0816282852F
:10128000C2850021C163222280F83A2080F83810FC
:101290000168CA6842F48072CA6001684A6942F013
:1012A00001024A610068C16841F02001C16000206C
:1012B00070470120704702207047000010B50446B7
:1012C0001548844208D11548007801F09BF80122A6
:1012D00012491148FFF7C8FF0F484030844209D136
:1012E0000F48007801F0B6F80B4801220C49403055
:1012F000FFF7BAFF0848403884420BD1094800780C
:1013000001F048F804480122BDE810400549403882
:10131000FFF7AABF10BD0000080600200E00002045
:101320001A000020020000202DE9F843044690F83E
:1013300039001F4616460D46202850D1A5B19EB152
:1013400094F8380001284AD0012084F838004FF082
:101350000008C4F83C80212084F83900FFF740F9E8
:10136000A6848146E68426E00120BDE8F883E08C6F
:10137000401EE084A0684B46B0F5805F4FF000024D
:101380004FF080012046009703D000F0BCFBE8B985
:101390000DE000F0B8FBC8B928882168C0F3080048
:1013A0004860206908B16D1C05E0AD1C03E02168B0
:1013B00015F8010B4860E08C0028D8D14B4600227C
:1013C00040212046009700F09EFB08B10320CCE7A7
:1013D000202084F8390084F838800020C5E70220F6
:1013E000C3E77047FEE7000070B586B000242348CD
:1013F0000094019402940394816941F04001816159
:10140000816901F040010491816941F0100181611D
:10141000816901F010010491816941F00401816149
:10142000816901F004010491816941F02001816129
:101430008069134E00F0200004900122FF21304605
:10144000FFF7C9F8FF200125CDE900050320CDE90C
:10145000024069463046FEF7BBFF6E0300966946C0
:101460000848CDE90145FEF7B3FF009669460648F6
:10147000CDE90145FEF7ACFF06B070BD001002409B
:1014800000180140001001400014014010B596B052
:1014900000240F9410941194129413941C2108A802
:1014A0001494FEF7A9FE20216846FEF7A5FE284801
:1014B000264901604721C0E90114F921C0E903145C
:1014C00044618461FFF705FC08B1FEF7D5FE4FF4D7
:1014D00080500F900FA91E48FFF72AFC08B1FEF7B5
:1014E000CBFE1B48FFF71EFD08B1FEF7C5FE1394A7
:1014F00013A917481494FFF7CBFB08B1FEF7BCFE05
:101500006020CDE908040220CDE90A040C940D9472
:10151000002208A90E480E94FFF79CFC08B1FEF7C4
:10152000ABFE00944FF40050CDE9044002940194C6
:101530000394694606480794FFF780FB08B1FEF75D
:101540009BFE0348FFF760FC16B010BD002C014065
:10155000880500200C4810B50A4901604FF4E131BC
:101560004160002181600C22C160C0E904128161E8
:10157000C161FFF7ADFD002803D0BDE81040FEF7C4
:101580007BBE10BD004C0040C80500200C4810B5C3
:101590000A4901604FF4E1314160002181600C2271
:1015A000C160C0E904128161C161FFF791FD0028AB
:1015B00003D0BDE81040FEF75FBE10BD003801400B
:1015C000080600200C4810B50A4901604FF4E131CB
:1015D0004160002181600C22C160C0E90412816178
:1015E000C161FFF775FD002803D0BDE81040FEF78C
:1015F00043BE10BD0044004048060020FEE770478F
:1016000070477047FEF7F2BF30B58FB028216846AB
:10161000FEF7F2FD14210AA8FEF7EEFD01210804F1
:10162000CDE900100024029402250491CDE9075071
:101630004FF4E01009906846FFF75CF90F20CDE900
:101640000A056802CDE90C4002210AA80E94FFF7B2
:1016500065F80FB030BD00000D48016841F0010190
:10166000016041680B4A1140416001680A4A11401B
:101670000160016821F480210160416821F4FE01CC
:1016800041604FF41F0181600449C0030860704746
:10169000001002400000FFF8FFFFF6FE08ED00E03A
:1016A000F0B502681C4B1D4D1D4E1E4F1E4C4FF0D9
:1016B000804C984209D0A04207D0604505D0A8428E
:1016C00003D0B04201D0B84204D122F0700E4A6873
:1016D00042EA0E02984209D0A04207D0604505D0E8
:1016E000A84203D0B04201D0B84203D122F44075E1
:1016F000CA682A434D6922F080022A4302608A6840
:10170000C2620A688262984201D0A04201D109698E
:10171000016301214161F0BD002C01400004004043
:1017200000080040000C00400034014010B58468FF
:1017300042EA032224F47F440A432243826010BD1C
:10174000826822F070020A4342F00701816070470C
:10175000F0B5026A22F001020262036A42688469FB
:10176000124E24F073050C682C4323F002058B689D
:101770002B430D4DA84201D0B04205D123F00807FC
:10178000CB683B4323F00403A84201D0B04205D10B
:101790004D6922F4407215438A692A43426084618C
:1017A000496841630362F0BD002C014000340140F0
:1017B000F0B5026A22F010020262026A436884698C
:1017C0000D6824F4E64444EA05248D6822F02002E2
:1017D00042EA05120F4D104EA84201D0B04206D188
:1017E000CF6822F0800242EA071222F04002A842AB
:1017F00001D0B04207D14D6923F4406343EA850329
:101800008D6943EA850343608461496881630262AC
:10181000F0BD0000002C014000340140F0B5026A28
:1018200022F480720262026A4368C46922F4007280
:1018300024F073050C68124E2C438D6842EA052291
:101840000E4DA84201D0B04206D1CF6822F400620A
:1018500042EA072222F48062A84201D0B04207D1B6
:101860004D6923F4405343EA05138D6943EA051398
:101870004360C4614968C1630262F0BD002C01404D
:101880000034014030B5026A22F480520262046AD8
:101890004268C3690D6823F4E64343EA05238D6873
:1018A00024F4005444EA0534084DA84202D0084DFF
:1018B000A84204D14D6922F4804242EA8512426076
:1018C000C36149680164046230BD0000002C01401E
:1018D0000034014010B5036A046A24F00104046274
:1018E000846924F0F00444EA021423F00A020A4353
:1018F0008461026210BD10B5036A23F01003036215
:101900008369046A23F4704343EA023224F0A0039B
:1019100043EA01118261016210BD00000148FFF736
:101920004FBB0000C805002010B5406A0021C185EA
:10193000C184FFF713FB10BD0168CA6822F49072DE
:10194000CA6001684A6922F001024A61202180F8D8
:101950003A10704710B590F83A10222901D00220B1
:1019600010BD8168B1F5805F11D00169002901685F
:101970001FD0496801F07F03816A4A1C82620B70A4
:10198000C18D491E0904090CC18518D02BE00269DC
:10199000816A002A0268526805D0D2B20A80816A40
:1019A000491C8162ECE7C2F308020A80816A891C43
:1019B000F7E74A68816A4B1C83620A70E0E70168B6
:1019C000CA6822F02002CA600168CA6822F48072E4
:1019D000CA6001684A6922F001024A61202180F848
:1019E0003A10FFF76BFC002010BD00002DE9F0411C
:1019F000044600680169E26821F440511143016125
:101A00002169A0680843616908432168CA6841F2F6
:101A10000C639A430243CA6020684169A26921F4B9
:101A20004071114341611E49206864253226884275
:101A300002D1FEF719FF01E0FEF706FF00EBC0013F
:101A400001EB001160686FF018078000B1FBF0F245
:101A5000B2FBF5F2B1FBF0F37A4303EB8202B1FB88
:101A6000F0F306EB0212B2FBF5F2B3FBF5F302F072
:101A7000F00202EB0312B1FBF0F3B1FBF0F0B0FBAC
:101A8000F5F0784303EB800006EB0010B0FBF5F0B7
:101A9000216800F00F0010448860BDE8F08100006C
:101AA0000038014090F83910212901D002207047F8
:101AB0008168B1F5805F016A0BD04A1C026202683E
:101AC00009785160C18C491E0904090CC1840ED0EB
:101AD00017E009880268C1F3080151600169002913
:101AE000016A02D0491C0162ECE7891CFBE701682E
:101AF000CA6822F08002CA600068C16841F04001F3
:101B0000C160002070472DE9F041984617460E4607
:101B10000446069D1DE0681C1BD02DB1FEF760FD3C
:101B2000A0EB0800A84214D92068C16821F4D07144
:101B3000C1602068416921F001014161202084F8E1
:101B4000390084F83A00002084F838000320BDE80A
:101B5000F0812068006836EA000004D00020B84216
:101B6000D9D00020F3E70120F9E700000148FFF792
:101B700027BA0000080600200148FFF721BA00003C
:101B8000480600202DE9F04101220B4F0C46054686
:101B9000560231463846FEF71EFD04EB8400430032
:101BA000224629460548FFF7BFFB31463846BDE8C7
:101BB000F0410022FEF70FBD001001404806002052
:101BC000FEE700000FB4054B10B503A9044A0298C4
:101BD00000F028F810BC5DF814FB0000D9200008C4
:101BE000840000200907090E002804DB00F1E02032
:101BF00080F80014704700F00F0000F1E02080F83A
:101C0000141D704702E008C8121F08C1002AFAD14B
:101C100070477047002001E001C1121F002AFBD16C
:101C2000704700002DE9FF4F8DB00F460546002696
:101C300006E025280BD0DDE90F1290476D1C761CBD
:101C400028780028F5D111B03046BDE8F08F002487
:101C5000A246A1460122EC4900E0044315F8013FE9
:101C6000203B02FA03F00842F7D128782A2810D046
:101C70006FF02F022878A0F13001092914D80AEB5F
:101C80008A0102EB410144F0020400EB010A6D1CE1
:101C9000F0E701CF5FEA000A03D544F40054CAF12B
:101CA000000A44F002046D1C28782E2817D115F87C
:101CB000010F44F004042A280ED06FF02F02287878
:101CC000A0F1300109290AD809EB890102EB410191
:101CD00000EB01096D1CF2E757F8049B6D1C287896
:101CE0006C280FD006DC4C2817D068280DD06A2845
:101CF00014D104E0742810D07A280FD10DE044F4F8
:101D000000140AE044F4801401E044F440146978BB
:101D1000814202D104F580146D1C6D1C2A786E2A54
:101D20001FD00CDC632A31D004DC002A8BD0582A67
:101D300011D1A3E0642A68D0692A0CD165E0732A26
:101D40002ED004DC6F2A73D0702A04D19BE0752A50
:101D50006FD0782A6ED01046DDE90F129047761CBE
:101D600050E1C4F30250022806D0032809D0042809
:101D700001CF09D0066045E101CFF117C0E900614C
:101D800040E101CF06803DE106703BE117F8040B0E
:101D90008DF8000000208DF80100EB46012003E0E3
:101DA00057F804BB4FF0FF3061074FF0000102D439
:101DB0000DE008F10101884649450FDA8045F8DB5E
:101DC0001BF808100029F4D108E008F10101884649
:101DD0008142FADB1BF808100029F6D1DDE90F2358
:101DE000AAEB08008146214600F036F9304400EBAA
:101DF000080604E0DDE90F121BF8010B9047B8F16B
:101E00000108F7D221464846F7E00A21C4F30253FD
:101E10004FF0000B0891022B04D001CFC117032B08
:101E200009D00AE0FF1D27F00707F7E8020108E0E4
:101E300032E01FE020E000B2C117042B01D140B214
:101E4000C117031E71F1000307DA4FF0000CD0EB4D
:101E50000C006CEB01012D2302E0230504D52B239C
:101E60008DF82430012303E0E30701D02023F7E7B6
:101E7000984658E00A2110E010210EE010204FF0A3
:101E8000000B08900CE010214FF0000B44F004040C
:101E90004FF00809089103E008214FF0000B08916A
:101EA000C4F30253022B04D001CF0021032B06D030
:101EB00006E0FF1D27F00707F7E8020103E080B204
:101EC000042B00D1C0B24FF0000823072BD5702A95
:101ED00007D0DDF820C08CF0100C5CEA0B0C05D0AC
:101EE0000EE040238DF82430012308E050EA01037E
:101EF00006D030238DF824308DF825200223984613
:101F0000DDF820C08CF0080C5CEA0B0C0BD150EA19
:101F1000010301D1630706D530238DF824304FF03B
:101F20000108A9F10109582A04D038A20B9208AA85
:101F30000A920BE03AA2F9E75B46089AFEF714F919
:101F40000B9B9B5C0A9A521E0A92137050EA010284
:101F5000F2D10A98ADEB000000F1200B600702D52A
:101F600024F4803401E04FF00109D94502DDA9EBEA
:101F70000B0000E0002000EB0B0141440890AAEBAD
:101F8000010AE00306D4DDE90F232146504600F0A4
:101F900063F806444FF0000908E009A911F80900A8
:101FA000DDE90F12904709F10109761CC145F4DB08
:101FB000E0030CD5DDE90F232146504600F04CF834
:101FC000064404E0DDE90F1230209047761C0899A2
:101FD000481E08900029F5DC08E00A980A99007864
:101FE000491C0A91DDE90F129047761CBBF10001F4
:101FF000ABF1010BF1DC21465046DDE90F2300F087
:1020000019F806446D1C1BE60928010030313233F3
:102010003435363738396162636465660000000024
:10202000303132333435363738394142434445460E
:10203000000000002DE9F041044600251E46174629
:10204000880404D405E039462020B0476D1C641E86
:10205000F9D52846BDE8F0812DE9F0410446002578
:102060001E469046C80301D5302700E0202788048B
:1020700004D505E041463846B0476D1C641EF9D5CD
:102080002846BDE8F08100000146124809291FD208
:10209000DFE801F01E05080B0E1114171A000122CB
:1020A000802113E00122402110E0012220210DE0D7
:1020B000012210210AE00122082107E00122042167
:1020C00004E00122022101E001221146FEF783BA59
:1020D000704700000018014013B50A230122694629
:1020E0000248FFF721F900981CBD000008060020F7
:1020F000ADF5806D4FF4806529466846FEF77CF8A3
:102100000024FEF77BFAFFF77FFAFFF76DF9FFF780
:10211000BDF9FFF71FFAFFF739FAFFF753FA00F09E
:102120009DF82DA0FFF74EFD03E000BF00F0A0F8E2
:10213000002400F00DF9002844D10A20FEF736F9FA
:1021400029466846FEF758F800F01CF90146684633
:1021500000F03CF922A16846FEF759F818B10420B6
:1021600000F0B8F82AE020A16846FEF750F828B140
:10217000807A31284FF003002BD01DE01DA1684666
:10218000FEF745F828B1407A31284FF0020020D000
:1021900012E01AA16846FEF73AF878B1807A302842
:1021A0004FF0010015D0FFF76FFF0220FFF76CFF23
:1021B0000320FFF769FF0420FFF766FF694612A0BE
:1021C000FFF700FD6420641CFEF7F0F8052CB0D189
:1021D000ACE700F01BF8F1E753746172740D0A006C
:1021E0002274223A3300000068747470207265749F
:1021F00000000000746370207265740070696E677F
:10220000207265740000000025730000014612482A
:1022100009291FD2DFE801F01E05080B0E11141763
:102220001A000022802113E00022402110E0002249
:1022300020210DE0002210210AE00022082107E001
:102240000022042104E00022022101E000220121F9
:10225000FEF7C1B970470000001801400122024991
:102260000248FFF701B8000002000020C805002066
:1022700070B5174C00252068052826D2DFE800F04D
:10228000030A1118200012480821001DFFF77AFCEC
:10229000012013E00E4817210C30FFF773FC0220D9
:1022A0000CE00B4819212330FFF76CFC032005E0FC
:1022B000074809213C30FFF765FC0420206070BD11
:1022C000034809214530FFF75DFC256070BD000023
:1022D0002400002001460E48092917D2DFE801F04A
:1022E000160507090B0D0F11130080210CE040218A
:1022F0000AE0202108E0102106E0082104E0042182
:1023000002E0022100E00121FEF75EB97047000003
:10231000001801400C49D1E90132934202D14FF03B
:10232000FF307047094BC2F308029A5C02708A685A
:10233000521C8A6000780D2801D000207047487830
:10234000401C4870012070470000002088000020D9
:102350000448D0E90110814201D1012070470020DA
:1023600070470000000000200548D0E90110081A5D
:10237000B0F5007F01D301207047002070470000B6
:10238000000000200248D0E90110081A7047000040
:102390000000002010B50246FFF7E6FF10B14FF035
:1023A000FF3010BD0749084C4868C0F30803401CC3
:1023B000E25448600D2A02D10878401C08700020C1
:1023C00010BD0000000000208800002070B50D4600
:1023D0000646002405E03019FFF79CFF401C02D0A0
:1023E000641CAC42F7DB204670BD00000448D0E915
:1023F0000110081AFF2801D90120704700207047FA
:102400000C00002010B50246FFF7F0FF10B14FF0AE
:10241000FF3010BD0649074C4868C3B2401CE25467
:1024200048600D2A02D10878401C0870002010BDB9
:102430000C000020880200200548D0E90110081A8D
:10244000B0F5007F01D301207047002070470000E5
:102450001800002010B50246FFF7EEFF10B14FF054
:10246000FF3010BD0749084C4868C0F30803401C02
:10247000E25448600D2A02D10878401C0870002000
:1024800010BD00001800002088030020000000009C
:102490000000000001020304060708090000000014
:1024A00001020304C424000800000020880000008A
:1024B000041C00084C25000888000020004600008D
:1024C000141C0008000000000000000000000000D4
:1024D00000000000000000000000000000000000FC
:1024E000000000000000000000000000CC01070117
:1024F000011000E65581004E4C450026ECF50B54CA
:102500003238A1E6524835382500385501D0C2028C
:1025100000124C696768744C7578286C7578293A94
:10252000313639B1DD0001010901100F08DD00016C
:10253000020901100F090000010000001000000056
:0C254000000000000024F4000000000077
:0400000508000131BD
:00000001FF
